:100000005CC0000082C0000080C000007EC0000014
:100010007CC000007AC0000078C0000076C00000FC
:1000200074C0000072C0000070C000006EC000000C
:100030006CC000000C94302068C0000066C0000056
:100040000C94E42362C000000C9480260C94B22629
:100050005CC000005AC0000058C0000056C000003C
:1000600054C0000052C0000000000008000201005F
:100070000003040700000000000000000102040863
:100080001020408001020408102001020408102002
:10009000040404040404040402020202020203032E
:1000A0000303030300000000250028002B000000CC
:1000B0000000240027002A00D72611241FBECFEFFE
:1000C000D8E0DEBFCDBF11E0A0E0B1E0E8E2FFE4A0
:1000D00002C005900D92A43BB107D9F723E0A4EB31
:1000E000B1E001C01D92A83DB207E1F710E0CDE5F7
:1000F000D0E004C02197FE010E946327CC35D107D0
:10010000C9F70E9447210C9492277ACF611102C04F
:100110000C94ED246130E1F362E0FACF662319F02C
:1001200061E00C94292560E0FCCF90E080E0089528
:100130000F931F93009709F487C06115710509F4A7
:1001400083C00091040110910501209106013091B6
:1001500007010E3F1F4F2F4F3F4F09F066C04FEF73
:100160005FEFBA01409304015093050160930601CB
:1001700070930701409104015091050160910601BF
:1001800070910701DC011296ED91FC9180819181C3
:10019000A281B3818093200290932102A093220236
:1001A000B093230284819581A681B78180931C023C
:1001B00090931D02A0931E02B0931F02808591852B
:1001C000A285B3858093180290931902A0931A0216
:1001D000B0931B0284859585A685B785809314020C
:1001E00090931502A0931602B0931702109210027A
:1001F000109211021092120210921302A0D484ECF9
:1002000095E09093B5018093B4019093B7018093EA
:10021000B60184D3009731F421E030E03093250219
:10022000209324021F910F910895009104011091D1
:1002300005012091060130910701DB010D931D930B
:100240002D933C93139796CF8FEF9FEFEBCF8F9229
:100250009F92AF92BF92CF92DF92EF92FF921F9345
:10026000CF93DF934B015C011091270282E090E075
:10027000909325028093240281149104A104B10477
:1002800041F480912702811104C080912602C1E0CF
:100290008111C0E0C12CD12C7601809127028111FF
:1002A00006C080912602811102C0CC23D1F083E0E8
:1002B00090E09093250280932402CC2371F1CCE945
:1002C000DFEF111101C0C4D7CE01DF91CF911F9193
:1002D000FF90EF90DF90CF90BF90AF909F908F9066
:1002E00008956AE070E080E090E00E94532480E18D
:1002F000C80E87E2D81EE11CF11C8FEF8816980605
:10030000A806B80631F0C1E08C149D04AE04BF0409
:1003100008F0C0E080E036D3C0CFD0E0C0E0D1CF5D
:10032000CF92DF92EF92FF920F931F93CF93DF93C1
:100330008F3F910511F008F050C0209124023091B8
:1003400025022330310539F0209124023091250215
:100350002130310531F424E030E030932502209340
:1003600024026A017B01EC0182309105A0F011E0CA
:10037000AE01C701B601D1D2AB01BC01CE01112340
:10038000F9F0DF91CF911F910F91FF90EF90DF90E7
:10039000CF900C94510B8C01000F111F0C541E4F69
:1003A000D8018D919C91892B11F30E945B0B0297D0
:1003B000F1F6D801ED91FC91CE010995182FD8CF17
:1003C0000E94730B90E080E0DF91CF911F910F911D
:1003D000FF90EF90DF90CF9008958FEF9FEFF4CFD5
:1003E00080E0D0C2CF93DF9386E090E09093250227
:1003F0008093240220D3EC01E4EBF1E084E0DF0100
:100400001D928A95E9F7BCD610922502109224021B
:10041000CE01DF91CF9108958091260208958091B9
:100420000F02089560930401709305018093060103
:100430009093070190E080E00895CF92DF92EF92D1
:10044000FF926B017C019F7720E030E040E859E5A6
:100450000E94482287FF2BC020E030E040E05FE3AD
:10046000C701B6010E947D2387FD0EC020E030E069
:1004700040E05FE3C701B6010E94D121FF90EF90F9
:10048000DF90CF900C94B52220E030E040E05FEBAD
:10049000C701B6010E947D23181684F420E030E0E5
:1004A000A901C701B6010E9481236B017C01C7012C
:1004B000B601FF90EF90DF90CF90089520E030E0FC
:1004C00040E05FE3C701B6010E94D021FF90EF90AA
:1004D000DF90CF900C9435224F925F926F927F9273
:1004E0008F929F92AF92BF92CF92DF92EF92FF9244
:1004F00060910001709101018091020190910301CE
:100500009CDF6B017C0120E030E040E853E40E9476
:1005100048226FEF87FF0EC020E030E0A901C7013D
:10052000B6010E947D2360E087FD04C0C701B601CB
:100530000E944C2289E0F2DDC090E201D090E301FC
:10054000E090E401F090E5018FEFC81AD80AE80ABC
:10055000F80AC092E201D092E301E092E401F09245
:10056000E501C114D104E104F10499F48091E6019C
:100570009091E701A091E801B091E9010196A11DD8
:10058000B11D8093E6019093E701A093E801B09339
:10059000E9018090EA019090EB01A090EC01B0900D
:1005A000ED016091E6017091E7018091E801909181
:1005B000E9010E947822A50194010E94812320E094
:1005C00030E040E85FE40E9481232B013C01C70139
:1005D000B6010E947822A50194010E9481239B010B
:1005E000AC01C301B2010E94D1216093DE0170937E
:1005F000DF018093E0019093E101FF90EF90DF90A5
:10060000CF90BF90AF909F908F907F906F905F90B2
:100610004F9008951F93CF93DF93E8ECF1E08BE2C6
:10062000DF011D928A95E9F780E090E0A0E2B1E455
:1006300086A397A3A0A7B1A78DEC9CECACE4BEE386
:1006400082A393A3A4A3B5A381E79FE9A9EFB3E590
:1006500084839583A683B7838FE690E4A5E9BBE8FE
:1006600080879187A287B38789E29EE7AEE1B9E1EF
:1006700084879587A687B7878FE793E9A2EFB6EEC1
:10068000808B918BA28BB38BACEBB1E0B383A28355
:10069000E8EBF1E01196FC93EE9381E291E0918317
:1006A0008083938382838CED91E015969C938E9347
:1006B00014978CEC91E013969C938E9312978EED89
:1006C00091E017969C938E931697CDECD3E089E03A
:1006D000FE0111928A95E9F711E0188781E090E018
:1006E000A0E0B0E089839A83AB83BC8361E089E0BA
:1006F0000DDD1D83DF91CF911F9108958091CD0372
:10070000811103C081E08093CD0308954F925F92E1
:100710006F927F928F929F92AF92BF92CF92DF9211
:10072000EF92FF920F931F93F8944090FF01509027
:1007300000026090010270900202C090F301D0901C
:10074000F401E090F501F090F601452B09F0A6C008
:100750009B01AC01241935094609570929013A01C1
:100760000091FB011091FC012091FD013091FE01EF
:1007700048015901840C951CA61CB71C80169106D3
:10078000A206B306A0F40091F7011091F8012091A0
:10079000F9013091FA010F5F1F4F2F4F3F4F009328
:1007A000F7011093F8012093F9013093FA01809238
:1007B000FB019092FC01A092FD01B092FE0100911C
:1007C000F7011091F8012091F9013091FA0180921E
:1007D000030290920402A0920502B09206020093D6
:1007E0000702109308022093090230930A026093D3
:1007F000FF01709300028093010290930202A30113
:10080000920160E47DE083E090E00E9432276C0D6D
:100810007D1D8E1D9F1D6093F3017093F4018093E5
:10082000F5019093F60100910401109105012091CA
:100830000601309107010F3F1F4F2F4F3F4FF1F03F
:1008400000910401109105012091060130910701EA
:100850000E3F1F4F2F4F3F4F89F0C0900401D090A3
:100860000501E0900601F090070121E08C149D0441
:10087000AE04BF0408F420E020930F0278941F9187
:100880000F91FF90EF90DF90CF90BF90AF909F902F
:100890008F907F906F905F904F9008954B015C0117
:1008A00084189508A608B708A3019201261B370BE8
:1008B000480B590B6415750586059705E0F08216FF
:1008C0009306A406B50640F420E030E0A9018114A7
:1008D0009104A104B104A1F460E47DE083E090E020
:1008E0000E943227A7019601261B370B480B590B94
:1008F000CA01B901C3CF82169306A406B50660F7F4
:10090000A501940160E47DE083E090E00E9432273D
:100910006C0D7D1D8E1D9F1DB1CFF8CECF93DF9343
:1009200000D000D0CDB7DEB71C821B821A8219829C
:1009300010920B0210920C0210920D0210920E02F5
:10094000BE016F5F7F4FCE0103960E941420698124
:100950007A818B819C810E94691A009761F4BE01A3
:100960006F5F7F4FCE0103960E94202069817A81BC
:100970008B819C812CD50F900F900F900F90DF9161
:10098000CF910895FF920F931F93CF93DF93082F7A
:1009900060E070E0CB010E945324FF24F3940E9496
:1009A0005419EC01892B89F010E0CE3F8FEFD80766
:1009B00069F0002361F160E070E0CB010E945324F4
:1009C00081E090E0892B59F322C011E023D5EC019E
:1009D000892B21F0CE3F8FEFD80759F711111EC098
:1009E00011E0229609F410E00E940519EC01892B10
:1009F00021F0CE3F8FEFD807E1F6111111C011E0C1
:100A0000CE3F8FEFD80709F410E001110BC0CE01E3
:100A1000DF91CF911F910F91FF90089511E0E4CFE6
:100A200011E0F3CF60E070E0CB010E9453241F255A
:100A3000812F90E0C7CFCF93DF9380910F0288235F
:100A400021F060E070E0CB014CD635D6D0E0C0E0BC
:100A5000892B71F06AE070E080E090E00E945324FE
:100A600081E090DF28D62196C03D27E0D20781F7AC
:100A700027D60E94BD1A10922702109226021092C9
:100A80002002109221021092220210922302109250
:100A90001C0210921D0210921E0210921F02109250
:100AA00018021092190210921A0210921B02109250
:100AB0001402109215021092160210921702109250
:100AC00010021092110210921202109213024EEFB5
:100AD0005FEF6FEF7FEF4093040150930501609348
:100AE00006017093070110920F02E3E0F2E028E0A4
:100AF000DF011D922A95E9F71092FF011092000282
:100B000010920102109202021092FB011092FC015D
:100B10001092FD011092FE011092F7011092F8015F
:100B20001092F9011092FA011092F3011092F4015F
:100B30001092F5011092F601DF91CF910895109275
:100B40003302109234021092350210923602109243
:100B5000320280913B0290913C029093310280934B
:100B6000300210922F0210922E0210922A0210923E
:100B70002B0210922C0210922D0210923802109229
:100B8000370290E080E00895CF92DF92EF92FF92DB
:100B90000F931F93CF938C01892B09F055C020919F
:100BA0003B0230913C0280913002909131024091A1
:100BB0003B0250913C02509331024093300228177F
:100BC000390781F010922F0210922E0210922A0201
:100BD00010922B0210922C0210922D0210923802C9
:100BE0001092370280913B0290913C02019761F58F
:100BF0008091370290913802892B21F4809108016D
:100C0000811112C080913702909138020197E1F46E
:100C100080912A0290912B02A0912C02B0912D027A
:100C20000197A105B10581F410922A0210922B02BE
:100C300010922C0210922D021092080182E090E096
:100C4000909338028093370280913B0290913C024E
:100C5000019709F01CC180915102909152028017B6
:100C6000910709F014C180914D0290914E02A0911C
:100C70004F02B0915002009709F409C120914C0233
:100C800021110DC040914D0250914E0260914F02D2
:100C900070915002452B462B472B09F4F8C0209148
:100CA0003702309138022230310509F0F0C020912E
:100CB0002E022111ECC0FC01C080D180E280F380C3
:100CC00080913202882309F4D3C080913E02909132
:100CD0003F02892B09F4FDC020913E0230913F0272
:100CE00081E02230310509F080E020913E02309110
:100CF0003F02C1E02130310549F020913E023091A0
:100D00003F02C1E02230310509F0C0E0882309F438
:100D100056C0209148023091490240914A025091B8
:100D20004B02C701B6010E947D2387FD14C02091AC
:100D300048023091490240914A0250914B02609121
:100D400033027091340280913502909136020E94F4
:100D5000482287FD22C020914802309149024091EB
:100D60004A0250914B02C701B6010E947D2318161A
:100D700034F5209148023091490240914A02509145
:100D80004B02609133027091340280913502909150
:100D900036020E944822811112C080914002909137
:100DA0004102A0914202B0914302892B8A2B8B2BE6
:100DB00019F481E080932F0281E080932E02CC23EE
:100DC00009F456C0209148023091490240914A02EC
:100DD00050914B02C701B6010E94482287FF14C000
:100DE000209148023091490240914A0250914B02B1
:100DF00060913302709134028091350290913602F5
:100E00000E947D2387FF22C0209148023091490231
:100E100040914A0250914B02C701B6010E944822FC
:100E2000811126C0209148023091490240914A0226
:100E300050914B02609133027091340280913502DF
:100E4000909136020E947D23181694F480914002FE
:100E500090914102A0914202B0914302892B8A2BCA
:100E60008B2B19F481E080932F0281E080932E0276
:100E700081E090912E02911180E080933202C09225
:100E80003302D0923402E0923502F0923602012B06
:100E900009F067C18091370290913802892BD9F40B
:100EA00010923D0210922E0280910801882379F061
:100EB00082E090E09093380280933702109208010C
:100EC00020913B0230913C0281E0232BE9F080E04D
:100ED0001BC081E00ACF1092080180913D02882357
:100EE00049F010922F02109238021092370210929D
:100EF0003D02EDCF80913B0290913C02892BE1F0C5
:100F000080912E0210922E022091370230913802E9
:100F10002230310509F45EC088F42115310509F449
:100F200048C02130310509F4F3C010922F0210920D
:100F30002E0210923D0238C081E0E6CF2330310509
:100F400009F4B1C02430310581F740912A02509153
:100F50002B0260912C0270912D0241155105610503
:100F6000710561F0415051096109710940932A02EC
:100F700050932B0260932C0270932D0240912A0211
:100F800050912B0260912C0270912D02452B462B23
:100F9000472BD9F42091390230913A0221303105A2
:100FA00009F046C010922F021092380210923702B8
:100FB0000CC080910801882341F082E090E090937A
:100FC0003802809337021092080110922802809113
:100FD0002F02CEC08823C9F3809140029091410234
:100FE000A0914202B0914302181619061A061B0678
:100FF0000CF07DC080913B0290913C02019709F07A
:1010000076C08091400290914102A0914202B0913D
:10101000430280932A0290932B02A0932C02B09358
:101020002D0283E090E09093380280933702CDCF79
:1010300040914402509145026091460270914702EE
:10104000452B462B472BA9F010922F02809144028A
:1010500090914502A0914602B091470280932A02E6
:1010600090932B02A0932C02B0932D0281E090E08C
:10107000DACF882399F08091090190910A01A0911B
:101080000B01B0910C0180932A0290932B02A09344
:101090002C02B0932D0284E090E0C5CF10922F0275
:1010A00082E090E0C0CF80912A0290912B02A09123
:1010B0002C02B0912D020097A105B10559F00197BE
:1010C000A109B10980932A0290932B02A0932C02CC
:1010D000B0932D0280912A0290912B02A0912C02B4
:1010E000B0912D02892B8A2B8B2B09F06ECF80912A
:1010F000090190910A01A0910B01B0910C01892B7B
:101100008A2B8B2B09F44ECF81E080932F02B3CF33
:1011100040912A0250912B0260912C0270912D0275
:10112000411551056105710561F041505109610991
:10113000710940932A0250932B0260932C02709302
:101140002D0240912A0250912B0260912C02709145
:101150002D02452B462B472B09F037CF8111C7CFE6
:101160009FCF80912802882309F431CF80912902F2
:10117000CF911F910F91FF90EF90DF90CF90089546
:1011800010923302109234021092350210923602FD
:1011900010923202109238021092370210923102ED
:1011A00010923002109252021092510210922F02AD
:1011B00010922E0210922A0210922B0210922C02F0
:1011C00010922D02109229021092280210924D02C4
:1011D00010924E0210924F021092500210924C0246
:1011E000109248021092490210924A0210924B0249
:1011F00088EE93E0A0E0B0E08093090190930A01AB
:10120000A0930B01B0930C0110924402109245027E
:101210001092460210924702109240021092410230
:10122000109242021092430210923F0210923E022C
:1012300081E08093080110923D0210923C021092CE
:101240003B0210923A021092390290E080E0089539
:1012500080913B0290913C02892B19F58091080105
:10126000882351F080913D02811106C081E0809376
:10127000290280932802089520913D0230910801AF
:1012800081E090E0332311F090E080E030E08223B1
:101290009323892B21F01092290281E0EACF10924A
:1012A0002802089582E090E0FA01918380838FEF15
:1012B0009FEF0895CF93DF93EA01009711F00E940A
:1012C000371B1982188290E080E0DF91CF9108955A
:1012D000DB01009719F48FEF8C9308952EEF2C9378
:1012E0000F968F30910508F033C0FC01E658F64F99
:1012F0000C946327A609A409A209A0099E099A09CA
:101300009C0998099609940991098D0989098F0901
:10131000A80980E311968C93089589E2FBCF82E2BD
:10132000F9CF11961C92089583E2F4CF81E2F2CFB7
:1013300081E1F0CF87E2EECF8AE2ECCF80E1EACF25
:1013400084E2E8CF88E2E6CF86E2E4CF81E3E2CF31
:1013500080E2E0CF80915F029091600208959093C7
:10136000600280935F02089580915E0208959091DB
:101370005E02892B80935E020895982F909580914C
:101380005E02892380935E02089580915D02089534
:1013900080915B0290915C0208956115710559F08E
:1013A000FB0130E020E070E060E02417350719F021
:1013B0006115710511F0CB010895A081B181A817C5
:1013C000B90709F4BF012F5F3F4F3696EECF8091EA
:1013D000610281111CC062D268D290935402809342
:1013E00053020E94EE130E940014909358028093BF
:1013F00057020E946F180E947618909356028093AD
:10140000550281E08093610290E080E0089584EFCE
:101410009FEF08958F929F92AF92BF92CF92DF92EB
:10142000EF92FF920F931F93CF93DF93CDB7DEB769
:101430002A970FB6F894DEBF0FBECDBF1A86198665
:1014400018861F821E821D821C821B821A821982AC
:101450008091610207EF1FEF882309F49CC08E0181
:101460000D5F1F4F9E012B5F3F4FAE01495F5F4FE6
:10147000BE01675F7F4F90E080E00E94EF198C0112
:10148000009721F00596029708F0DBC029853A8580
:101490002115310509F402C1ED80FE804B815C818C
:1014A000B701640F751F8F8198858617970708F419
:1014B000F5C0E20EF31ED7019C91903C09F07FC06D
:1014C0004230510508F47BC011968C9140915F0227
:1014D00050916002452B09F49CC0913F08F071C007
:1014E0002CE1290F2D3008F48BC02DE2290F20317B
:1014F00008F489C0903C21F48150823008F483C004
:1015000088E3890F8B3008F481C098E6C92E99E0F2
:10151000D92EE2E5F9E06D817E81AE014F5F5F4F2C
:1015200089859A8509955C01C114D104A1F189804E
:101530009A808114910479F18B819C818815990599
:1015400008F487C010E000E04B815C8170E060E04F
:10155000C7010E948B2701151105E9F449815A81C1
:1015600069857A858D819E81680F791FC501F60195
:101570000995E980FA800D811E812F813885498582
:101580005A856FEF7FEF81E090E00E948B198C010C
:10159000892B09F056C0C8012A960FB6F894DEBF11
:1015A0000FBECDBFDF91CF911F910F91FF90EF90B4
:1015B000DF90CF90BF90AF909F908F90089580E084
:1015C00085CF30E020E0220F331FF901ED5AFD4FA7
:1015D0000190F081E02D309709F497CF892F90E0AA
:1015E0000995009709F491CFDC011296ED91FC91D9
:1015F00013971496CD90DC90309709F08CCF1FC0D4
:1016000021E030E0E0CF22E030E0DDCF23E030E049
:10161000DACFD12CC12CEAE5F9E09F3F09F07BCF6E
:10162000E0915302F0915402309721F4C90104EF84
:101630001FEF0CC08FEF90E009950097A9F604EF1B
:101640001FEF89859A85009709F4A5CF0E94371B63
:10165000A2CF0E94B81A8C0189859A850E94371BF7
:1016600070E060E0C4010E94511A98878F830E9445
:1016700088199E838D836F8178856115710559F076
:10168000C8010E945A1C9A87898706EF1FEF892B91
:1016900009F058CF59CF08EF1FEF56CF08EF1FEFD3
:1016A000D0CF20916102222319F020E00C94051480
:1016B00087EF9FEF089580915F02909160020895F7
:1016C0000E947B180E94D517F5D0E3E5F2E088E090
:1016D000DF011D928A95E9F71092610290E080E0A7
:1016E00008950C94321621E040E050E0BA010C94C9
:1016F000051486E090E0FA019183808390E080E019
:10170000089547E050E064E271E047CEDF92EF9247
:10171000FF920F931F93CF93DF938A01EC01C60FC3
:10172000D71FE0906502F0906602D9800E94A01A4F
:10173000D816190678F082E090E0F8019183808352
:101740008EEF9FEFDF91CF911F910F91FF90EF9060
:10175000DF900895EF2841F482E090E0F801918352
:10176000808384EF9FEFEECF89818093640290E0C5
:101770000196F8019183808390E080E0E3CFCF93DE
:10178000DF93EA010E94E316882321F00E94AD1A3C
:101790000E94E41682E090E0998388838BEF9FEFAC
:1017A000DF91CF910895CF93DF93EB0186E0FB01AA
:1017B00011928A95E9F78FEF8883D6DD8983E5DD7D
:1017C0008A83E6DD9D838C83DF91CF910895CF934B
:1017D000DF93EA010E94E616811109C082E090E0E1
:1017E0009983888385EF9FEFDF91CF91089590E0F3
:1017F00080E0B5DD81E090E09983888390E080E02F
:10180000F3CF0F931F93CF93DF93EA018C01060F61
:10181000171F0E94E61681110BC082E090E09983A9
:10182000888385EF9FEFDF91CF911F910F910895EE
:10183000F8018181823038F082E090E099838883DA
:101840008EEF9FEFF0CF81E090E089DD88E090E0BF
:101850009983888390E080E0E6CFCF93DF93009771
:10186000D1F4EB01FB01329686E0DF011D928A95EF
:10187000E9F78FEF888385E089831A820E94A01A96
:101880008B830E949F1A9D838C8381E08E838F833C
:10189000DF91CF910895DF91CF911ACD81E89BE040
:1018A0009093630280936202089580916202909106
:1018B000630208951092630210926202089580916B
:1018C0006502909166020895411105C06115710588
:1018D0008105910561F060936502709366028093C3
:1018E0006702909368024093690281E0089580E066
:1018F0000895FF920F931F93CF93DF938A01EC011A
:10190000C60FD71FF9800E94A01AF816190668F0B2
:1019100082E090E0F801918380838EEF9FEFDF916A
:10192000CF911F910F91FF9008956C817D818E81E1
:101930009F814B81C9DF811108C082E090E0F801EE
:101940009183808384EF9FEFEACF89818093640243
:1019500090E00196F8019183808390E080E0DFCFF2
:10196000CF93DF93EA01FC01E60FF71F64817581D5
:10197000868197814381A8DF811109C082E090E0D0
:101980009983888384EF9FEFDF91CF91089581E061
:1019900090E09983888390E080E0F6CFE5E6F2E07E
:1019A0004081518162817381480F511D611D711DFC
:1019B00040835183628373830895CF93C0916402FF
:1019C0004C2F50E0609165027091660201960E9472
:1019D00082278C2FE3DF10926402CF910895009745
:1019E00099F480916502909166022FEFFB012083AC
:1019F000892B59F02091640230E02F5F3F4F24176C
:101A0000350719F4CB01D9CF63CC0895009799F429
:101A100080916502909166022FEFFB012083892B54
:101A200059F02091640230E02F5F3F4F24173507B3
:101A300019F4CB01C2CF4CCC089523E1AC01249F13
:101A4000C001259F900D1124E0916E02F0916F026C
:101A5000E80FF91F238134812250310981E02230BF
:101A6000310508F080E008950F931F93CF93DF9323
:101A70000091700210917102D0E0C0E080E00C177C
:101A80001D0749F491E0811190E0892FDF91CF91FA
:101A90001F910F9108958111F5CFCE01CEDF2196D0
:101AA000EECFA0916E02B0916F02109729F12091B4
:101AB00070023091710282179307F0F453E1589F3E
:101AC0009001599F300D1124A20FB31FED91FC918D
:101AD0001197309789F012968C91681768F48BE013
:101AE000689FE00DF11D112480819181892B21F0E7
:101AF00081E09281491708F080E008959C0143E15C
:101B0000429FC001439F900D1124E0916E02F0911D
:101B10006F02E80FF91F8385823091F481E090E035
:101B20006581768140910D0150910E016417750712
:101B300011F490E080E0892B19F081E0232B09F06B
:101B400080E00895EF92FF920F931F93CF93DF935E
:101B5000EA01FC01E60FF71F02811381E480F580A2
:101B60004F2D6E2DC8019DDF81110DC082E090E0E8
:101B7000998388838EEF9FEFDF91CF911F910F9113
:101B8000FF90EF900895C80158DF882339F082E074
:101B900090E09983888388EF9FEFEECF1093140134
:101BA00000931301E0921501F092160181E090E09C
:101BB0009983888390E080E0DFCFCF92DF92EF922D
:101BC000FF920F931F93CF93DF937A01EC01C60F1F
:101BD000D71FC0901301D0901401009115011091EE
:101BE0001601412F602FC6015CDF811110C082E019
:101BF00090E0F701918380838AEF9FEFDF91CF918F
:101C00001F910F91FF90EF90DF90CF900895C60144
:101C100014DF882341F082E090E0F7019183808314
:101C200088EF9FEFEBCF4C815D816E817F819A8140
:101C300089818F3F41F082E090E0F70191838083BA
:101C40008EEF9FEFDBCFE3E1EC9D9001ED9D300D3A
:101C50001124E0916E02F0916F02E20FF31F0190E8
:101C6000F081E02D2BE0029FE00DF11D1124019089
:101C7000F081E02D27E0129FE00DF11D11248083FB
:101C800091838B81828343835483658376831F5F33
:101C90001093160181E090E0F7019183808390E03A
:101CA00080E0ACCFEF92FF920F931F93CF93DF931F
:101CB0007A018C01060F171FC0916E02D0916F023E
:101CC000209781F021E030E0F801828193814091FA
:101CD0007002509171028417950710F030E020E0F7
:101CE000232B71F482E090E0F701918380838EEFE3
:101CF0009FEFDF91CF911F910F91FF90EF9008958B
:101D000043E1489F9001499F300D1124C20FD31F1A
:101D100094DE882341F082E090E0F7019183808394
:101D200088EF9FEFE6CFF801248135812038310517
:101D3000C8F687818111D6CF4181842F90E08F7EB4
:101D4000009741F082E090E0F7019183808386EF75
:101D50009FEFCFCF4F833E832D832681288719861F
:101D6000223010F421E0288721E030E0F7013183B0
:101D70002083BFCF88E090E0FA019183808390E0D8
:101D800080E00895FB018FEF808381E181838FEFF5
:101D90009FEF9383828380E890E09583848316820B
:101DA00017820895FB018FEF808391E091838283F6
:101DB0009383848384E3858381E090E097838683A3
:101DC0000895DF92EF92FF920F931F93CF93DF93CB
:101DD000EA01FC01E60FF71F8181813071F082E09A
:101DE00090E0998388838FEF9FEFDF91CF911F91D0
:101DF0000F91FF90EF90DF90089582819381D480BE
:101E00002581E680F78000916E0210916F02011526
:101E1000110539F482E090E0998388838CEF9FEF7D
:101E2000E4CF40917002509171028417950738F009
:101E300082E090E0998388838EEF9FEFD6CF892B45
:101E400039F082E090E09983888386EF9FEFCDCFD1
:101E50008D2D8D7FB1F72130A1F781E0D11006C023
:101E600091E0E916F10431F080E004C0E2E0EE1602
:101E7000F104D0F3882329F390E080E0DEDD8823AD
:101E800039F082E090E09983888388EF9FEFADCFAF
:101E9000F801D38681E08487F686E586108A178666
:101EA00081E090E09983888390E080E09ECF4CE0D1
:101EB00050E06EE471E071CA8F929F92BF92CF9210
:101EC000DF92EF92FF920F931F93CF93DF93EA017C
:101ED000FC01E60FF71F828193810481B580E091B8
:101EE0006E02F0916F02309791F482E090E0998356
:101EF00088838CEF9FEFDF91CF911F910F91FF901F
:101F0000EF90DF90CF90BF909F908F900895209199
:101F10007002309171028217930738F082E090E0EE
:101F2000998388838EEF9FEFE6CF23E1289F60019E
:101F3000299FD00C1124EC0DFD1DE080F180E114EF
:101F4000F10499F28281081748F78BE0089F80011D
:101F50001124E00EF11EF70180819181892B29F671
:101F6000BB20E1F2F7E0BF9E40011124C4010E94B2
:101F7000341BF70191838083E0916E02F0916F0230
:101F8000EC0DFD1D0190F081E02DE00FF11F80812F
:101F90009181009739F482E090E0998388838DEFF6
:101FA0009FEFA9CFA40170E060E00E948B27809191
:101FB0006E0290916F02C80ED91EF6018081918148
:101FC000080F191FF801B28281E090E0998388839D
:101FD00090E080E090CFAF92BF92CF92DF92FF92DD
:101FE0000F931F93CF93DF93EA01FC01E60FF71FD6
:101FF00082819381F48000916E0210916F0201152D
:10200000110581F482E090E0998388838CEF9FEF43
:10201000DF91CF911F910F91FF90DF90CF90BF90F4
:10202000AF9008952091700230917102821793074A
:1020300038F082E090E0998388838EEF9FEFE8CFBD
:102040002FEF2F0D2C3FA8F723E1289F6001299F38
:10205000D00C11240C0D1D1DF80180819181892B5C
:1020600089F6FBE0FF9E50011124C5010E94341B3C
:10207000F80191838083E0916E02F0916F02EC0D84
:10208000FD1D80819181009739F482E090E0998371
:1020900088838DEF9FEFBCCFA50170E060E00E94C8
:1020A0008B27E0916E02F0916F02EC0DFD1DF28224
:1020B00081E090E09983888390E080E0A9CFCF927F
:1020C000DF92EF92FF920F931F93CF93DF93860FD0
:1020D000971FFC010281138180916E0290916F0223
:1020E000892B81F082E090E0FA01918380838CEF6C
:1020F0009FEFDF91CF911F910F91FF90EF90DF90B5
:10210000CF900895C801B0E0A0E00197A109B109FE
:102110008F3F9F4FA105B10540F082E090E0FA01AA
:10212000918380838EEF9FEFE4CF7A0183E1809FDC
:102130006001819FD00C1124C6010E94341BEC0168
:10214000009741F482E090E0F701918380838DEF66
:102150009FEFCFCFA60170E060E00E948B27D09365
:102160006F02C0936E02109371020093700290E0B0
:1021700080E02FEF3FEF41E061E070E080179107D2
:1021800041F481E090E0F7019183808390E080E06A
:10219000B0CF3A8B298B1B864C877E876D87188A38
:1021A0001F8601966396EACFCF92DF92EF92FF925D
:1021B0000F931F93CF93DF93EC01D12CC12C10E030
:1021C00000E0F12CE12C6A8170E006171707BCF0E3
:1021D000660F771FAE014F5E5F4FC7010E94611B04
:1021E000009721F02FEF3FEF3A8B298BDF91CF91B2
:1021F0001F910F91FF90EF90DF90CF900895E881AD
:10220000F981EC0DFD1D438154818D859E85489F8C
:102210009001499F300D589F300D1124C90101963E
:102220000115110519F44F8144FD049661E070E039
:102230000E94511AE816F90608F47C010F5F1F4F3F
:102240008BE0C80ED11CBFCFF89420916C02309166
:102250006D0281E02115310509F080E0232B09F0A2
:10226000789408952F923F924F925F926F927F924F
:102270008F929F92AF92BF92CF92DF92EF92FF9296
:102280000F931F93CF93DF933C01660E771EF301EC
:10229000828193814C01B12CA12CC0916E02D0910E
:1022A0006F02209769F021E030E060917002709138
:1022B00071028617970710F030E020E0232BD1F44D
:1022C00082E090E0FA01918380838EEF9FEFDF91AF
:1022D000CF911F910F91FF90EF90DF90CF90BF9023
:1022E000AF909F908F907F906F905F904F903F90B6
:1022F0002F9008958092170190921801A0921901D1
:10230000B0921A0163E1689F9001699F300D11241A
:10231000C20FD31FF3018181833040F082E090E04F
:10232000FA019183808386EF9FEFD1CF2A012B8121
:102330003C81232BF1F4288139819F8191FF2EC0AC
:10234000232B09F46FC0209173029A81422F490F09
:102350005527551FBA0141E050E06138710514F06E
:1023600050E040E0452B09F45DC02A87920F90931E
:1023700073028150823008F481C066DF882309F43B
:10238000D8C0F3018181813009F48DC008F47BC08D
:10239000823009F4C6C090E080E0ADC0232B09F480
:1023A00041C0209172029A81E22FE90FFF27FF1F9F
:1023B00041E050E0ED3FF10514F050E040E0452BE6
:1023C00089F12A87920F90937202D3CFA081B181B5
:1023D000A20FB31F11966C91060F111D0196295F74
:1023E0003F4F8417950794F38D859E85089F1001B4
:1023F000099F300C189F300C1124C114D104D1F462
:102400008F8184FF17C00E949F1AF5E02F0E311CA8
:1024100021E08215930508F420E0A701455F5F4F96
:1024200021110EC082E090E0F2019183808387EF5A
:102430009FEF4DCF0E949F1A2FEF221A320AE8CF4A
:1024400088819981E80EF91EF70114830383FFEF59
:10245000CF1ADF0A7A018A818C151D0409F00CF469
:102460008CCFE881F981EE0DFF1D428150E030E014
:1024700020E010E000E090E080E0B3CFF12CE12C10
:10248000D12CC12CE8CF81E090E09C838B83ECDAE7
:10249000882309F480CF81E090E00E94AF0980E4B6
:1024A0000E94BD0978CF89899A89019661F083E0FD
:1024B00090E09C838B8382E090E00E94AF0980E4EF
:1024C0000E94B70968CF8D819E8120910D013091C6
:1024D0000E0182179307D1F46091110170911201DE
:1024E000AE014F5E5F4F80910F01909110010E94ED
:1024F000191C0097E1F2789422E030E0F201318378
:102500002083892B99F08DEF9FEFE1CE89288A28CF
:102510008B2869F6892B59F6CE0146DE188A1F866C
:10252000E8CF82E090E09C838B8335CF90E080E021
:10253000CECE82E090E0F2019183808385EF9FEF21
:10254000C6CE8F929F92AF92BF92CF92DF92EF92C0
:10255000FF920F931F93CF93DF93EA018C01060F35
:10256000171FF8018181833098F082E090E0998311
:10257000888386EF9FEFDF91CF911F910F91FF909E
:10258000EF90DF90CF90BF90AF909F908F90089585
:1025900080916E0290916F02892B61F081E090E052
:1025A0002091700230917102232B11F490E080E0B1
:1025B000892B39F482E090E0998388838EEF9FEF36
:1025C000DACF42DE882309F4DFC0F801818181304F
:1025D00009F495C0E8F0823099F4209170023091AE
:1025E0007102E0916E02F0916F0290E080E041E0B4
:1025F00050E02817390709F0BDC036DA811117C03D
:10260000789481E090E09983888390E080E0B3CF74
:102610002091700230917102E0916E02F0916F0290
:1026200090E080E041E050E02817390741F481E074
:1026300090E00E94AF0980E40E94BD09E1CF638170
:102640007481672B11F05483438301967396ECCF0A
:10265000E0916E02F0916F02E00FF11F238134814F
:1026600022303105D9F4218932892F3F3F4FB1F40F
:102670002581368140910D0150910E0124173507B7
:1026800061F5AF014F5E5F4F6091110170911201D2
:1026900080910F01909110010E94191CEFEFCE1A4A
:1026A000DE0AEE0AFE0A0D5E1F4F40917002509145
:1026B000710270E060E0C416D506E606F7063CF548
:1026C000009731F27894892B09F49BCF82E090E057
:1026D000998388838DEF9FEF4ECFC114D104E1041D
:1026E000F104E1F6232BD1F6CF015EDDE0916E021D
:1026F000F0916F02E00FF11F108A1786CFCF10E024
:1027000000E090E080E0C12CD12C7601CECF009784
:10271000C9F610E000E0812C912C540183E0E82EF2
:10272000F12C1AC0E0916E02F0916F02E00FF11FE0
:1027300083819481029749F4F482E38282E090E0FD
:102740000E94AF0980E40E94B709FFEF8F1A9F0A29
:10275000AF0ABF0A0D5E1F4F809170029091710207
:10276000B0E0A0E088169906AA06BB06DCF290E06D
:1027700080E0A8CF638174816230710511F45483C5
:1027800043830196739635CF82E090E099838883E6
:1027900085EF9FEFF0CE0097B9F48FEFFB018083B8
:1027A000209117013091180143E1429FC001439FDE
:1027B000900D1124E0916E02F0916F02E80FF91F65
:1027C0008285FB01818308950C94680988E090E07C
:1027D000FA019183808390E080E0089510926D0269
:1027E00010926C02EEE6F2E086E0DF011D928A951F
:1027F000E9F787E59FE090936B0280936A02089562
:1028000080916A0290916B0208952F923F924F92AD
:102810005F926F927F928F929F92AF92BF92CF9270
:10282000DF92EF92FF920F931F93CF93DF93CDB779
:10283000DEB760970FB6F894DEBF0FBECDBFF89439
:10284000E0916C02F0916D023196F0936D02E0938D
:102850006C027894A0916E02B0916F02BA83A98342
:10286000109709F4F9C1E0917002F0917102EF2B19
:1028700009F4F2C128874B875C876D877E879A872A
:102880008987B88BAF87312C212CF12C512C412C0E
:1028900080917002909171022816390610F4FF2081
:1028A00029F1F89480916C0290916D0201979093B8
:1028B0006D0280936C027894C20160960FB6F89412
:1028C000DEBF0FBECDBFDF91CF911F910F91FF9063
:1028D000EF90DF90CF90BF90AF909F908F907F90C0
:1028E0006F905F904F903F902F900895B10190E0CE
:1028F00080E086D4682EEF85F889878181FD3DC010
:10290000838194810397C9F5258136813C832B838C
:1029100089859A852817390781F5C101EFD8782E66
:102920008823A9F1AF85B8891F968D919C91509706
:10293000019621E01D964D915C918417950709F051
:1029400020E02F83B12CA12CEF85F88982818A1594
:102950001B0419F014F0FF20E9F0F885FF2309F4B7
:102960006BC1AF85B88950961C921E921F97662046
:1029700021F0B10190E080E045D4FFEF2F1A3F0A2B
:102980002F8538892D5E3F4F388B2F8781CFB1E05F
:10299000BF83D8CFBDD49E838D83E885EE23E9F035
:1029A000772009F43BC1AF85B8891F968D919C9122
:1029B000892B79F0BBE0BA9DC001BB9D900D11241D
:1029C000AF85B889ED91FC91E80FF91F858196815B
:1029D0004ED6BFEFAB1ABB0AB7CF81E0772039F0F4
:1029E000EF85F88927853089232B09F080E0F82EC0
:1029F000E12CA114B10439F4AF85B8891796EC9095
:102A0000E4FAEE24E0F8BBE0BA9D6001BB9DD00C77
:102A10001124882309F423C1AF85B889ED91FC9175
:102A20001197EC0DFD1D438154811D962D913C9114
:102A3000429FC001439F900D529F900D1124E110C1
:102A40005CC001969087878361E070E08781908504
:102A500028D5EF85F88921893289008111810C0DF3
:102A60001D1D2F3F320709F44AC0BC01C90122D7FE
:102A7000D80116969C938E931597AF85B889ED91E2
:102A8000FC911197EC0DFD1D0581168101151105B5
:102A900009F4CDC0ED81FE810E0F1F1F1A968C9197
:102AA0008A0DD8018C93E1102FC00F5F1F4FAF85A7
:102AB000B889ED91FC91EC0DFD1D12870187AF8562
:102AC000B889ED91FC91EC0DFD1D85819681892BD6
:102AD00009F4A4C080910D0190910E012B813C81DD
:102AE0002817390709F465C0772011F00185128590
:102AF000912C812C1A8219824AC00596A3CFB4D595
:102B0000F80196838583B9CF8B859C85AD85BE857D
:102B1000F80181839283A383B4830B5F1F4FC7CFD8
:102B2000E080F180E80CF91CD70113966D917C913F
:102B300014978C918F3F09F473C0E1E0F0E002C07C
:102B4000EE0FFF1F8A95E2F7CF01092E000CAA0BAA
:102B5000BB0BFB01408151816281738184239523EA
:102B6000A623B72321E0892B8A2B8B2B09F420E0A5
:102B7000D8012C93D70111968C91080F111DE98172
:102B8000FA813196FA83E983F7E08F0E911CAF85C5
:102B9000B889ED91FC91EC0DFD1D828129813A816E
:102BA0008217130611F00CF0BBCF772011F01287BB
:102BB00001873F81332391F1AF85B889ED91FC9175
:102BC000EC0DFD1D61E070E0878190856AD4AF85D2
:102BD000B889ED91FC91EC0DFD1DE780F0844581F5
:102BE0005681E1E0F0E0662011F0F0E0E0E00D81D8
:102BF0001E819C01B101882799278E1B9F0B8BD3C7
:102C00002C01892B59F0EF85F88980819181C80EBC
:102C1000D91ED60115968D919C9129D5F12CD9CE2E
:102C2000F701418150E0C8010E948227A3CF86EFBF
:102C3000482E55245A94CDCEEF85F8898785908902
:102C40000196908B8787258536858217930709F033
:102C50008ECE108A17868BCE512C412C22CE10E0BE
:102C600000E02DCF2F923F924F925F926F927F9212
:102C70008F929F92AF92BF92CF92DF92EF92FF928C
:102C80000F931F93CF93DF9380916E0290916F0209
:102C900010E000E0892BA9F0D7DA0AEF1FEF8823B4
:102CA00081F02090700230907102C0916E02D0913C
:102CB0006F02D12CC12C10E000E02C143D04A9F4CB
:102CC0007894C801DF91CF911F910F91FF90EF9001
:102CD000DF90CF90BF90AF909F908F907F906F903C
:102CE0005F904F903F902F900895C6010E947E0DF7
:102CF000882309F18B819C810397E9F48F8598895A
:102D0000892BC9F0B60190E080E07AD221E030E072
:102D1000882311F030E020E044245524421A530A5D
:102D2000B12CA12C912C812C8A818815190409F0D1
:102D300038F4188A1F864FEFC41AD40A6396BDCFA1
:102D4000E881F981EA0DFB1D85819681892BA1F12E
:102D500061E070E087819085A4D33C01D9D28C01D9
:102D6000E881F981EA0DFB1D8185928525813681F7
:102D7000200F311FAC01421B530B9A014781508534
:102D8000421B530B70E060E00E948B27E881F981C1
:102D9000EA0DFB1DE780F084458156819301B60161
:102DA000C201B9D28C01892B39F0E881F981EA0D91
:102DB000FB1D858196815BD45FEF851A950A8BE0B8
:102DC000A80EB11CB1CF40CA789408952F923F92BB
:102DD0004F925F926F927F929F92AF92BF92CF92EB
:102DE000DF92EF92FF920F931F93CF93DF9300D068
:102DF00000D000D0CDB7DEB700916E0210916F0207
:102E0000992493940115110509F43EC0A090700215
:102E1000B090710219DA982E8823B1F110926F02E6
:102E200010926E0210927102109270021092720251
:102E3000109273028FEF9FEFDC0180931701909344
:102E40001801A0931901B0931A0178947AD31E83C4
:102E50000D83C12CD12C7601C501B0E0A0E089839F
:102E60009A83AB83BC8322242A94322C89819A8151
:102E7000AB81BC81C816D906EA06FB06F4F0C8018E
:102E8000F6D380E40E94BD09892D26960FB6F894EA
:102E9000DEBF0FBECDBFDF91CF911F910F91FF908D
:102EA000EF90DF90CF90BF90AF909F907F906F900A
:102EB0005F904F903F902F900895AD81BE81159601
:102EC0008D919C91169720910D0130910E018217E2
:102ED0009307D1F451968D919C91DAD4ED81FE81C6
:102EE00080819181B12CA12C412C512C3201892B54
:102EF00089F5BFEFCB1ADB0AEB0AFB0AED81FE81F5
:102F00007396FE83ED83B2CFC114D104E104F104C2
:102F100029F7892B19F7ED81FE81818992898F3FED
:102F2000980709F057D4AD81BE8152963C922E92FB
:102F30005197D4CF8A0D9B1DDC018D919C910097F8
:102F400009F095D3BFEF4B1A5B0A6B0A7B0AEBE0E3
:102F5000AE0EB11CAD81BE818D919C9111971296E0
:102F60004C9150E070E060E0441655066606770626
:102F70000CF37DD3BECFCF93DF93EA0127DF81111E
:102F800009C082E090E09983888385EF9FEFDF910D
:102F9000CF91089581E090E00E94AF0981E090E038
:102FA0009983888390E080E0F2CF10DF10926B026B
:102FB00010926A02089542E050E066E971E00C94D4
:102FC000CD09FF920F931F93CF93DF938A01EC01FA
:102FD000C60FD71FF980B4D20897F816190671F0FA
:102FE00068F082E090E0F801918380838EEF9FEF9C
:102FF000DF91CF911F910F91FF9008956C817D819A
:103000008E819F814B810E94640C811108C082E0F7
:1030100090E0F8019183808384EF9FEFE9CFF980FE
:103020000E945F0C4F2D50E0BE01685F7F4F0E94F1
:10303000822789810E94CE0C81E090E0F801918383
:10304000808390E080E0D4CFDF92EF92FF920F93E5
:103050001F93CF93DF938A01EC01C60FD71F0E9405
:103060005F0C7C01D9806CD2DD2059F0029721E001
:1030700030E0D816190619F010F030E020E0232BCC
:1030800079F482E090E0F801918380838EEF9FEFE6
:10309000DF91CF911F910F91FF90EF90DF900895F6
:1030A000EF2841F482E090E0F8019183808384EF7F
:1030B0009FEFEECFF9800E945F0C4F2D50E0BE01D4
:1030C0006E5F7F4F0E94822789810E94CE0C81E033
:1030D00090E0F8019183808390E080E0D9CF8BED80
:1030E00097E1909375028093740208958091740221
:1030F0009091750208950895FC01118210829383C6
:1031000082830895DB011D921C92DC011296ED91E1
:10311000FC9113977183608313967C936E9312973F
:103120000895FC0180819181DB018D939C93A081A6
:10313000B181109741F08D919C9191838083892B6F
:1031400011F4F383E2830895FC0180819181DB0116
:103150008D939C93892B11F47383628371836083B5
:103160000895FC0111821082938382830895CF9386
:10317000DF9300D0CDB7DEB71A821982F894BE0172
:103180006F5F7F4F8BE792E0CCDF89819A81009758
:1031900009F06DD289819A81892B89F7BE016F5F11
:1031A0007F4F8FE792E0BDDF89819A81009709F018
:1031B0005ED289819A81892B89F778940F900F903C
:1031C000DF91CF910895CF93DF9300D0CDB7DEB7D5
:1031D0001A821982F894BE016F5F7F4F87E792E0F1
:1031E000A0DF89819A81009709F041D289819A8173
:1031F000892B89F778940F900F90DF91CF910895E4
:1032000081E0089590E080E00895EF92FF920F939F
:103210001F93CF93DF9300D0CDB7DEB71A82198208
:103220008091760207EF1FEF8823A1F1F894BE0189
:103230006F5F7F4F8FE792E074DF789489819A8186
:10324000EE24E394F12C892B51F4F894BE016F5FC6
:103250007F4F8BE792E065DF7894F12CE12C898138
:103260009A810EEF1FEF0097A9F0FC014281538174
:1032700064E070E00DD58C01892B61F0F8946981D0
:103280007A81C701880F991F880F991F85589D4F14
:103290005BDF7894C8010F900F90DF91CF911F9161
:1032A0000F91FF90EF9008950F931F93CF93DF93AB
:1032B00000D000D0CDB7DEB71C821B821A821982E3
:1032C0008091760207EF1FEF8823C1F0AE014D5FBA
:1032D0005F4F64E070E0CE0101964DD58C01892BE3
:1032E00069F4E981FA818B819C8193838283F894CC
:1032F00069817A8187E792E005DF7894C8010F90B1
:103300000F900F900F90DF91CF911F910F91089523
:1033100052D6049608958F929F92AF92BF92CF9209
:10332000DF92EF92FF920F931F93CF93DF9300D022
:10333000CDB7DEB71A821982BC016F5F7F4F633051
:10334000710598F0AA24AA94BA2CC5010F900F9089
:10335000DF91CF911F910F91FF90EF90DF90CF9071
:10336000BF90AF909F908F9008954115510551F3F4
:10337000480159018A016C01CBDF8815990511F7C5
:10338000E114F104F9F28E0D9F1DA816B906D0F2D2
:10339000809176028823F1F0F894B50164507109A8
:1033A0009701AE014F5F5F4FC801049679D55C016C
:1033B000892B71F489819A81F80193838283C601F4
:1033C000880F991F880F991FB80185589D4F9ADE65
:1033D0007894BBCF87EFA82EBB24BA94B6CFAF9218
:1033E000BF92CF92DF92EF92FF920F931F93CF93F2
:1033F000DF9300D0CDB7DEB71A821982892B09F08E
:1034000047C06115710509F443C04115510509F420
:103410003FC02115310509F43BC001151105C1F16B
:10342000809176028823B9F179016A015B01F894F1
:10343000BE016F5F7F4F87E792E073DE78948981EA
:103440009A81009759F1DC0112966D917C91A80147
:1034500004963FD58C01E981FA81D501ED93FC9367
:10346000828193810496F6019183808351DFD70195
:103470008D939C93C8010F900F90DF91CF911F9176
:103480000F91FF90EF90DF90CF90BF90AF90089595
:103490000FEF1FEFEFCF07EF1FEFECCF0EEF1FEF98
:1034A000E9CFCF93DF93EC01672B71F48DD58C17A7
:1034B0009D0760F080D52496C80FD91F7FD58C0F4B
:1034C0009D1FDF91CF9108957CD5F1CF90E080E0F2
:1034D000F8CF0F931F93CF93DF93209176022111A2
:1034E0002BC08B01EC018BE792E006DE8FE792E0C8
:1034F00003DE87E792E000DE97D00097C1F464D541
:1035000070E060E0CEDF4BE151E062E070E0D9D0E6
:10351000009769F480911B0190911C0167D5B80157
:10352000CE019CD3009719F421E020937602DF911D
:10353000CF911F910F91089584EF9FEFF8CF41C570
:1035400043C5CF93DF9343D5EC01892B11F40FDEF4
:103550003ADECE01DF91CF910895CF93DF9337D537
:10356000EC01892B09F403DECE01DF91CF910895A0
:1035700080911B0190911C010895CF93DF9380915E
:103580007602D0E0C0E08823D1F035D5EC01892B5C
:10359000B1F4EDDD18DE80911B0190911C011AD170
:1035A000CED1EC01892B59F48BE792E0DADD8FE77D
:1035B00092E0D7DD87E792E0D4DD10927602CE016B
:1035C000DF91CF910895EF92FF920F931F93CF93C6
:1035D000DF93EC017A018B010F5F1F4F0E9DA0015D
:1035E0000F9D500D1E9D500D112470E060E00E9453
:1035F0008B2790E080E0F0E0E0E02FEFE816F9069E
:1036000039F4DF91CF911F910F91FF90EF900895C2
:103610001A8219822883309711F0D283C1830196D0
:10362000FE01C00FD11FEACFE5E8F2E085E8DF0137
:103630001D928A95E9F71092840210928302E1E1CB
:10364000F3E0118210821582148213821282178293
:10365000168211861086EDE0F3E01182108213824B
:10366000128290E080E0089590E080E00895009755
:1036700039F1DC018E91813041F4E0910F03F0913A
:1036800010033097E9F0CD010994811119C0F89425
:103690008FEF8C93809111039091120312969C935B
:1036A0008E931197B0931203A0931103809113038B
:1036B00090911403019690931403809313037894CC
:1036C0000895EF92FF920F931F93CF93DF934115CD
:1036D000510509F47CC0009709F479C061157105A2
:1036E00009F475C0EA01AB01BC01F89480911103A3
:1036F00090911203892B19F588E892E08C7F6D5F19
:103700007F4F6C7F9B012F5F3F4F249F8001259F40
:10371000100D349F100D11242091190330911A03BC
:103720002115310509F03CC0E0908302F09084023D
:1037300022E830E02E193F092017310730F4789441
:103740002FEF3FEF86EF9FEF22C0909312038093FD
:1037500011035093160340931503509314034093A1
:103760001303709318036093170310931A030093C5
:103770001903009709F027DF0E0D1F1D1093840217
:1037800000938302789430E020E090E080E0398379
:103790002883DF91CF911F910F91FF90EF900895B3
:1037A0002017310760F29093120380931103509316
:1037B000160340931503509314034093130370931F
:1037C0001803609317030097E9F2FDDEDBCF8FEF5C
:1037D0009FEFDFCF892B51F5F894109212031092CE
:1037E00011031092160310921503109214031092F5
:1037F00013031092180310921703209119033091AC
:103800001A032115310571F0809183029091840291
:10381000821B930B909384028093830210921A036D
:1038200010921903789490E080E008958FEF9FEF55
:1038300008954115510549F1009739F16115710558
:1038400021F1F89420910D0330910E03232BB9F44C
:1038500020910F0330911003232B89F490930E03D2
:1038600080930D037093100360930F03789421E00D
:1038700030E090E080E0FA0131832083089578946D
:103880002FEF3FEF86EF9FEFF6CF8FEF9FEF08957B
:10389000019769F4F89410920E0310920D031092A0
:1038A000100310920F03789490E080E008958FEF5A
:1038B0009FEF08956115710519F4F0E0E0E011C083
:1038C0008130910581F4E0910D03F0910E03309762
:1038D000A1F3CB0101960995009779F3FC0181E0F2
:1038E0008193CF010895892B41F780911103909125
:1038F0001203892B11F380911703909118038617F7
:103900009707D8F2F89480911303909114030097CD
:1039100031F0E0911103F0911203309711F4789493
:10392000CCCF218132813093120320931103019770
:10393000909314038093130311927894D2CFEAE00A
:10394000F3E083E0DF011D928A95E9F7E5E8F2E014
:1039500085E8DF011D928A95E9F7109284021092A2
:103960008302E1E1F3E08AE0DF011D928A95E9F745
:10397000EDE0F3E084E0DF011D928A95E9F790E045
:1039800080E00895CF93DF93C0911D01D0911E0177
:10399000CF3FDC0759F4C1D390931E0180931D01E2
:1039A00097FF09C0D0931E01C0931D0184EF9FEFC4
:1039B000DF91CF91089590E080E0FACF82309105B9
:1039C00028F480931B0390E080E008958FEF9FEF31
:1039D00008954F925F926F927F92AF92BF92CF9273
:1039E000DF92EF92FF920F931F93CF93DF9300D05C
:1039F000CDB7DEB71A821982009709F478C0611535
:103A0000710509F474C020911D0130911E0107EF6A
:103A10001FEF2F3F3F4F09F444C06B015C01412C65
:103A2000512C3201F12CE12C10E000E09E012F5FBF
:103A30003F4FA6014E195F09B5016E0D7F1D8091A4
:103A40001D0190911E01C8D3892B09F04AC08981BC
:103A50009A81009741F4E114F10429F420911B03A9
:103A6000222309F441C0E80EF91EEC14FD04C8F449
:103A700080E8481684E858068EE16806710418F557
:103A800060E070E0CB010FD72AE0420E511C611CB0
:103A9000711C0A3F4FEF140721F0043F8FEF180706
:103AA000A1F4C8010F900F90DF91CF911F910F915A
:103AB000FF90EF90DF90CF90BF90AF907F906F908E
:103AC0005F904F90089501EF1FEF81E090E0013F7C
:103AD0002FEF120711F090E080E0892B09F4A6CFB8
:103AE000E0CF04EF1FEFDDCF0AEF1FEFDACF0FEFCC
:103AF0001FEFD7CF4F925F926F927F92AF92BF929C
:103B0000CF92DF92EF92FF920F931F93CF93DF93A9
:103B100000D0CDB7DEB71A821982009709F478C0B9
:103B20006115710509F474C020911D0130911E01C9
:103B300007EF1FEF2F3F3F4F09F444C06B015C01BB
:103B4000412C512C3201F12CE12C10E000E09E01BF
:103B50002F5F3F4FA6014E195F09B5016E0D7F1D06
:103B600080911D0190911E01EDD2892B09F04AC070
:103B700089819A81009741F4E114F10429F420919C
:103B80001B03222309F441C0E80EF91EEC14FD04C6
:103B9000C8F480E8481686E9580688E96806710482
:103BA00018F560E070E0CB017ED62AE0420E511C91
:103BB000611C711C0E3F4FEF140721F0043F8FEF83
:103BC0001807A1F4C8010F900F90DF91CF911F91BA
:103BD0000F91FF90EF90DF90CF90BF90AF907F90CC
:103BE0006F905F904F90089502EF1FEF81E090E09B
:103BF000023F2FEF120711F090E080E0892B09F4CB
:103C0000A6CFE0CF04EF1FEFDDCF0EEF1FEFDACF2F
:103C10000FEF1FEFD7CF80911D0190911E018F3FB5
:103C2000980749F072D2892B49F48FEF9FEF909358
:103C30001E0180931D0190E080E0089584EF9FEFC6
:103C40000895FC01680F791F90E080E0E617F70700
:103C500009F408952191820F911DF8CF20911C0342
:103C6000211113C08FDE009791F41092220310925D
:103C700021031092200310921F0310921E03109232
:103C80001D0321E020931C03089584EF9FEF089506
:103C9000AF92BF92CF92DF92EF92FF920F931F935A
:103CA000CF93DF93009709F460C04630510508F4C4
:103CB0005CC020911C03C7EFDFEF222309F449C049
:103CC0008C01060F171FF801C080D180C114D104E8
:103CD00009F44EC096012A5F3F4F4217530708F47C
:103CE00047C07C01809121039091220393838283BA
:103CF000B6016C5F7F4F5801A60EB71EC801A1DF49
:103D0000F5019183808364E070E0C80162DEEC011C
:103D1000892BF9F481E090E051DEB601C8010496E8
:103D200058DEEC01892B91F462E070E0C50151DEB0
:103D3000EC01892B59F4C7019ADC80912103909101
:103D400022030196909322038093210390E080E068
:103D500035DECE01DF91CF911F910F91FF90EF9053
:103D6000DF90CF90BF90AF900895CFEFDFEFF1CF0E
:103D7000C9EFDFEFEECF6F927F928F929F92AF925B
:103D8000BF92CF92DF92EF92FF920F931F93CF9348
:103D9000DF9300D000D0CDB7DEB7009709F47AC02A
:103DA0004115510509F476C020911C0307EF1FEF60
:103DB000222309F44DC03A017B015C0164E070E00C
:103DC000CE01019697DE8C01892B09F041C0098153
:103DD0001A810115110509F45AC0480186E0880EC0
:103DE000911CB701680D791D80911F0190912001F0
:103DF00061DD6C01009709F450C0A70170E060E03C
:103E00000E948B2789819A81AB81BC81EC0CFD1CBF
:103E1000F70181939193A193B1937F0181E090E0A9
:103E2000CDDDB801C70166DE892B31F562E070E0B7
:103E3000C701800F911F5EDE8C01892BE9F490E0B1
:103E400080E0BCDDF501D182C082F30191828082E5
:103E5000C8010F900F900F900F90DF91CF911F919D
:103E60000F91FF90EF90DF90CF90BF90AF909F9019
:103E70008F907F906F90089590E080E09FDDF50136
:103E800011821082F30111821082C601F0DB09EF6A
:103E90001FEFDECF0FEF1FEFDBCF06EF1FEFD8CF07
:103EA0000097A1F04115510589F02115310571F0F8
:103EB000F90136966E177F0748F0DC012D933C938D
:103EC000DA01ED93FC9390E080E008958FEF9FEF8F
:103ED0000895AF92BF92CF92DF92EF92FF920F932D
:103EE0001F93CF93DF93009709F45FC041155105ED
:103EF00009F45BC06530710508F457C020911C03BC
:103F0000C7EFDFEF222391F1DC01CD90DC90119718
:103F10001296ED91FC9196012A5F3F4FC9EFDFEFBA
:103F20002617370719F5C0911D03D0911E0320975E
:103F300049F521E030E030931E0320931D037A0100
:103F40008C01F0932003E0931F035601B4E0AB0E05
:103F5000B11CB50176DE0A0D1B1DF80120813181EF
:103F60008217930729F5D701CD92DC92CE01DF911C
:103F7000CF911F910F91FF90EF90DF90CF90BF9066
:103F8000AF90089520911F03309120032F5F3F4F82
:103F9000CCEFDFEFE217F30790F2CBEFDFEF2E1756
:103FA0003F0768F2D0E0C0E0CACFCFEFDFEFDECF4F
:103FB000C3EFDFEFDBCF84E090E0089582E090E094
:103FC00008958CEF9FEF089580E290E0089510929D
:103FD0002203109221031092200310921F031092CB
:103FE0001E0310921D0390E080E00895909320013D
:103FF00080931F01089580911C03882391F00BDEAC
:10400000009789F41092220310922103109220034A
:1040100010921F0310921E0310921D0310921C0396
:10402000089590E080E00895009749F061157105CA
:1040300031F0FC0111821082FB011182108208957F
:10404000F3CF26E030E040E855E260E070E090E039
:1040500080E000C0892B19F480E393E0F1C5089556
:104060001F920F920FB60F9211242F933F934F93ED
:104070005F936F937F938F939F93AF93BF93EF93D0
:10408000FF938BEC93EF9093850080938400B7D0DF
:10409000FF91EF91BF91AF919F918F917F916F9120
:1040A0005F914F913F912F910F900FBE0F901F90F6
:1040B00018958BEC93EF9093850080938400AFE686
:1040C000B0E08C918E7F8C93E0E8F0E080818C7F73
:1040D0008083E1E8F0E08081877E80838081856055
:1040E000808380818D7F80838C9181608C93089503
:1040F000EFE6F0E0808190819E7F9083817008954B
:1041000081E0089510922303089568EE73E080E043
:1041100090E0C9D390E080E0089526E030E040E0F0
:1041200052EC61E070E090E080E094DF80E393E0A7
:10413000BDD4892B21F080E393E0D2D4F7CF90E077
:1041400080E00895CF92DF92EF92FF920F931F933A
:10415000CF93DF936B017A01E9011982188280E322
:1041600093E0A4D4892B69F18601CC24C39482E026
:10417000D82E80912303811110C080E393E0B0D446
:104180000297B9F7C0922303F801D1928F01888179
:104190009981019699838883ECCF888199818E15C6
:1041A0009F0578F480E393E09BD48F3F9807A9F3B1
:1041B000F80181938F018881998101969983888381
:1041C000ECCF90E080E0DF91CF911F910F91FF90B5
:1041D000EF90DF90CF9008950F931F93CF93DF93CD
:1041E000EA01890180E393E00FD6F801D183C0830F
:1041F00090E080E0DF91CF911F910F910895CF92D1
:10420000DF92EF92FF92CF93DF938091240391E0AE
:10421000980F90932403882379F021E030E03093C5
:1042200026032093250380932403DF91CF91FF90F1
:10423000EF90DF90CF9008957894C0912201D091B3
:1042400023016E8D7F8D88A199A152D120E030E0AD
:1042500040E85FE456D26B017C016A8D7B8D8C8DCA
:104260009D8D46D19B01AC01C701B6019AD014D1F6
:104270006B017C010E946C02B701A60190E080E016
:104280000E949001F894809124038150CCCF0F9329
:104290001F93CF93DF931092D7031092D60339D395
:1042A000D0DEC0912201D09123011982188262E3ED
:1042B00070E080E090E00E94120270E060E090E028
:1042C00080E00E949500009709F03AC00E940A031E
:1042D000F8947894BE016A5D7F4F8A819B810E9429
:1042E0009800892B59F46FEF7FEFCB010E942701D3
:1042F0000E940C02882311F081E08AA7F894D9DE8D
:104300000E940F02882311F080E008C00E940C0276
:104310008111FACF81E09AA59111F6CF8093D6034F
:1043200078940E94AA098C0178948091D603811117
:104330000CC00E947E030E94F201F89490E080E09D
:10434000DF91CF911F910F9108950E94F0010E947B
:104350000F028823D9F081E08093D7039091D7038F
:1043600081E0911180E08093D6038091D703811181
:10437000BFDE0130110529F40E94AA09892B09F436
:10438000C1DE0E94AA098C01BBDECFCF0E940C02C5
:104390008111E1CF81E09AA59111DECF80E0DCCFE1
:1043A0005058BB27AA270ED057C148D130F04DD165
:1043B00020F031F49F3F11F41EF43DC10EF4E0955E
:1043C000E7FB0AC1E92F59D180F3BA1762077307D7
:1043D0008407950718F071F49EF588C10EF4E095F6
:1043E0000B2EBA2FA02D0B01B90190010C01CA01AF
:1043F000A0011124FF27591B99F0593F50F4503E5A
:1044000068F11A16F040A22F232F342F4427585F4B
:10441000F3CF469537952795A795F0405395C9F763
:104420007EF41F16BA0B620B730B840BBAF091501B
:10443000A1F0FF0FBB1F661F771F881FC2F70EC0BA
:10444000BA0F621F731F841F48F48795779567958D
:10445000B795F7959E3F08F0B3CF9395880F08F076
:104460009927EE0F97958795089529D180F09F376A
:1044700040F491110EF43BC160E070E080E89FE3EE
:10448000089526F01B16611D711D811DABC0C5C0AE
:104490007FD008F481E00895F8D088F09F5790F01D
:1044A000B92F9927B751A0F0D1F0660F771F881F59
:1044B000991F1AF0BA95C9F712C0B13081F016D120
:1044C000B1E0089513C1672F782F8827B85F39F0BE
:1044D000B93FCCF3869577956795B395D9F73EF4B8
:1044E00090958095709561957F4F8F4F9F4F089560
:1044F000E89409C097FB3EF490958095709561957E
:104500007F4F8F4F9F4F9923A9F0F92F96E9BB2733
:104510009395F695879577956795B795F111F8CFAF
:10452000FAF4BB0F11F460FF1BC06F5F7F4F8F4F1A
:104530009F4F16C0882311F096E911C0772321F010
:104540009EE8872F762F05C0662371F096E8862FA8
:1045500070E060E02AF09A95660F771F881FDAF7FF
:10456000880F9695879597F90895A9D080F09F3781
:1045700040F491110EF0BBC060E070E080E89FEB6A
:10458000089526F41B16611D711D811D2BC045C0A9
:10459000990F0008550FAA0BE0E8FEEF1616170654
:1045A000E807F907C0F012161306E407F50798F0BC
:1045B000621B730B840B950B39F40A2661F0232BD5
:1045C000242B252B21F408950A2609F4A140A69551
:1045D0008FEF811D811D089597F99F6780E870E036
:1045E00060E00895882371F4772321F09850872B99
:1045F000762F07C0662311F499270DC09051862BA2
:1046000070E060E02AF09A95660F771F881FDAF74E
:10461000880F9695879597F908959F3F31F09150AF
:1046200020F4879577956795B795880F911D969596
:10463000879597F908959FEF80EC089500240A94D8
:104640001616170618060906089500240A9412166D
:104650001306140605060895092E0394000C11F4A0
:10466000882352F0BB0F40F4BF2B11F460FF04C04D
:104670006F5F7F4F8F4F9F4F089557FD9058440FA6
:10468000551F59F05F3F71F04795880F97FB991FB1
:1046900061F09F3F79F0879508951216130614066E
:1046A000551FF2CF4695F1DF08C0161617061806FB
:1046B000991FF1CF86957105610508940895E5DF8E
:1046C000A0F0BEE7B91788F4BB279F3860F4161630
:1046D000B11D672F782F8827985FF7CF869577953C
:1046E0006795B11D93959639C8F30895E894BB2753
:1046F00066277727CB0197F908954ADF08F48FEFF3
:1047000008950BD0A9CF9ADF28F09FDF18F09523EA
:1047100009F062CF90CF1124EACFAFDFA0F3959FCD
:10472000D1F3950F50E0551F629FF001729FBB2798
:10473000F00DB11D639FAA27F00DB11DAA1F649F44
:104740006627B00DA11D661F829F2227B00DA11DF7
:10475000621F739FB00DA11D621F839FA00D611D7D
:10476000221F749F3327A00D611D231F849F600D9E
:10477000211D822F762F6A2F11249F5750408AF0D7
:10478000E1F088234AF0EE0FFF1FBB1F661F771F63
:10479000881F91505040A9F79E3F510570F01CCFE3
:1047A000A6CF5F3FECF3983EDCF38695779567954F
:1047B000B795F795E7959F5FC1F7FE2B880F911D81
:1047C0009695879597F908951F920F920FB60F92BD
:1047D00011242F933F938F939F93AF93BF93809117
:1047E000280390912903A0912A03B0912B033091C3
:1047F000270323E0230F2D3758F50196A11DB11D86
:10480000209327038093280390932903A0932A03DE
:10481000B0932B0380912C0390912D03A0912E0334
:10482000B0912F030196A11DB11D80932C0390938D
:104830002D03A0932E03B0932F03BF91AF919F91AF
:104840008F913F912F910F900FBE0F901F90189551
:1048500026E8230F0296A11DB11DD2CF3FB7F894D1
:1048600080912C0390912D03A0912E03B0912F03E2
:1048700026B5A89B05C02F3F19F00196A11DB11DBB
:104880003FBFBA2FA92F982F8827BC01CD01620FF7
:10489000711D811D911D42E0660F771F881F991FB2
:1048A0004A95D1F708958F929F92AF92BF92CF927F
:1048B000DF92EF92FF926B017C01D0DF4B015C0134
:1048C000C114D104E104F104D9F0CBD2C7DF6819D7
:1048D00079098A099B09683E73408105910580F337
:1048E00021E0C21AD108E108F10888EE880E83E0C1
:1048F000981EA11CB11CC114D104E104F10431F7CC
:10490000FF90EF90DF90CF90BF90AF909F908F90EF
:104910000895789484B5826084BD84B5816084BD37
:1049200085B5826085BD85B5816085BDEEE6F0E028
:10493000808181608083E1E8F0E010828081826084
:104940008083808181608083E0E8F0E08081816005
:104950008083E1EBF0E0808184608083E0EBF0E035
:10496000808181608083EAE7F0E0808184608083D9
:104970008081826080838081816080838081806883
:1049800080831092C1000895833081F028F4813033
:1049900099F08230A9F008958730A9F08830C9F0E5
:1049A0008430B1F4809180008F7D03C080918000BD
:1049B0008F7780938000089584B58F7784BD0895A4
:1049C00084B58F7DFBCF8091B0008F778093B0004E
:1049D00008958091B0008F7DF9CFCF93DF9390E061
:1049E000FC01E458FF4F249180579F4FFC018491B4
:1049F0008823C9F090E0880F991FFC01E255FF4F12
:104A0000A591B491FC01EC55FF4FC591D491611172
:104A10000DC09FB7F8948C91209582238C93888148
:104A2000282328839FBFDF91CF910895623051F4EE
:104A30009FB7F8943C91822F809583238C93E881D3
:104A40002E2BEFCF8FB7F894EC912E2B2C938FBF9A
:104A5000EACF1F93CF93DF93282F30E0F901E85975
:104A6000FF4F8491F901E458FF4FD491F901E057C9
:104A7000FF4FC491CC23A1F0162F811185DFEC2FBD
:104A8000F0E0EE0FFF1FEC55FF4FA591B4918FB7EB
:104A9000F894EC91111108C0D095DE23DC938FBF00
:104AA000DF91CF911F910895DE2BF8CFFC01918DFE
:104AB000228D892F90E0805C9F4F821B91098F731C
:104AC00099270895FC01918D828D981731F0828D80
:104AD000E80FF11D858D90E008958FEF9FEF089509
:104AE000FC01918D828D981761F0A28DAE0FBF2FC2
:104AF000B11D5D968C91928D9F5F9F73928F90E018
:104B000008958FEF9FEF0895FC01538D448D252F5D
:104B100030E0842F90E0821B930B541710F0CF9657
:104B2000089501970895FC01A48DA80FB92FB11D18
:104B3000A35ABF4F2C91848D90E001968F739927D3
:104B4000848FA689B7892C93A089B1898C918370B1
:104B500080648C93938D848D981306C00288F389AA
:104B6000E02D80818F7D80830895CF93DF93EC01CA
:104B7000888D8823B1F0AA89BB89E889F9898C914D
:104B800085FD03C0808186FD0CC00FB607FCF7CF02
:104B90008C9185FFF2CF808185FFEDCFCE01C3DF01
:104BA000EACFDF91CF910895EF92FF920F931F9379
:104BB000CF93DF93EC0181E0888F9B8D8C8D9813D0
:104BC0001AC0E889F989808185FF15C09FB7F894DC
:104BD000EE89FF896083E889F98980818370806428
:104BE00080839FBF81E090E0DF91CF911F910F9173
:104BF000FF90EF900895F62E0B8D10E00F5F1F4F82
:104C00000F731127E02E8C8D8E110BC00FB607FC91
:104C1000FACFE889F989808185FFF5CFCE0183DF5E
:104C2000F2CFEB8DEC0FFD2FF11DE35AFF4FF08219
:104C30009FB7F8940B8FEA89FB8980818062D0CF7F
:104C4000CF92DF92EF92FF921F93CF93DF93EC010D
:104C50006A017B01122FE889F98982E08083C114FF
:104C600081EED806E104F10499F060E079E08DE38B
:104C700090E0A701960105D1215031094109510960
:104C80005695479537952795211580E1380790F07F
:104C9000E889F989108260E874E88EE190E0A70164
:104CA0009601EFD021503109410951095695479598
:104CB00037952795EC85FD853083EE85FF8520832C
:104CC000188EEC89FD891083EA89FB8980818061D7
:104CD0008083EA89FB89808188608083EA89FB89F7
:104CE000808180688083EA89FB8980818F7D8083D1
:104CF000DF91CF911F91FF90EF90DF90CF900895BB
:104D00001F920F920FB60F9211242F938F939F93A0
:104D1000EF93FF93E0914003F09141038081E09194
:104D20004603F091470382FD1BC0908180914903A7
:104D30008F5F8F7320914A03821741F0E0914903FE
:104D4000F0E0E05DFC4F958F80934903FF91EF9178
:104D50009F918F912F910F900FBE0F901F901895DC
:104D60008081F4CF1F920F920FB60F9211242F93D0
:104D70003F934F935F936F937F938F939F93AF93E3
:104D8000BF93EF93FF9380E393E0CDDEFF91EF912C
:104D9000BF91AF919F918F917F916F915F914F9153
:104DA0003F912F910F900FBE0F901F901895E0E349
:104DB000F3E01382128288EE93E0A0E0B0E08483F7
:104DC0009583A683B78386EA91E09183808385ECFF
:104DD00090E09587848784EC90E09787868780ECC5
:104DE00090E0918B808B81EC90E0938B828B82ECB6
:104DF00090E0958B848B86EC90E0978B868B118E60
:104E0000128E138E148E0895AF92BF92CF92DF92BE
:104E1000EF92FF920F931F93CF93DF936C017B016F
:104E20008B01040F151FEB015E01AE18BF08C01700
:104E3000D10759F06991D601ED91FC910190F08173
:104E4000E02DC6010995892B79F7C501DF91CF9136
:104E50001F910F91FF90EF90DF90CF90BF90AF9098
:104E600008950895DB018F939F9333D0BF91AF9145
:104E7000A29F800D911DA39F900DB29F900D1124B4
:104E80000895A1E21A2EAA1BBB1BFD010DC0AA1F8B
:104E9000BB1FEE1FFF1FA217B307E407F50720F0A3
:104EA000A21BB30BE40BF50B661F771F881F991F1E
:104EB0001A9469F760957095809590959B01AC0167
:104EC000BD01CF010895EE0FFF1F0590F491E02D75
:104ED000099409D0A59F900DB49F900DA49F800DBB
:104EE000911D11240895A29FB001B39FC001A39FFB
:104EF000700D811D1124911DB29F700D811D112413
:104F0000911D0895FB01DC0102C001900D924150FA
:104F10005040D8F70895DC0101C06D9341505040D6
:084F2000E0F70895F894FFCFBB
:104F28000000C842FEFFFFFF01E8030000FFFF008A
:104F3800000000FFFFFFFFFFFFFFFFFFFFFFFFFF76
:104F4800FF01C801FF00010C2D0CFE00E70B6809EA
:104F5800FD00790BD30BFC00BF0B6809F600B00C01
:104F68006809F500860BEF0CF400790C060DDE00DD
:104F78003211CB13DD00A1126809DA00BA0EC20E95
:104F8800D900E613D20EE200A20D6809E100DD0D9A
:104F98006809E000520E6809D600BB176809D500F9
:104FA8005F106809D400EB0F6809D3005C0F68092B
:104FB800C000E10E6809F00024186809ED00E11747
:104FC800680900000000D42504278425B525562546
:044FD80070256225B9
:00000001FF
